:020000040800F2
:10000000F8080020D51F00086502000867020008F4
:100010006B0200086F020008730200080000000075
:10002000000000000000000000000000770200084F
:1000300079020008000000007B0200087D02000831
:10004000EF1F0008EF1F0008EF1F0008EF1F000858
:10005000EF1F0008EF1F0008EF1F0008EF1F000848
:10006000EF1F0008EF1F0008EF1F0008EF1F000838
:10007000EF1F0008EF1F0008EF1F0008EF1F000828
:10008000EF1F0008EF1F0008EF1F0008EF1F000818
:100090009D060008EF1F0008EF1F0008EF1F000873
:1000A000EF1F0008EF1F0008EF1F0008EF1F0008F8
:1000B000EF1F00085F1B0008EF1F0008EF1F00087C
:1000C000EF1F0008EF1F0008EF1F0008EF1F0008D8
:1000D000EF1F0008B11F0008EF1F0008EF1F000806
:1000E000EF1F0008EF1F0008EF1F0008EF1F0008B8
:1000F000EF1F0008EF1F0008EF1F0008EF1F0008A8
:10010000EF1F0008EF1F0008EF1F0008EF1F000897
:10011000EF1F0008EF1F0008EF1F0008EF1F000887
:10012000EF1F0008EF1F0008EF1F0008EF1F000877
:1001300000F002F800F03AF80AA090E8000C8244BF
:100140008344AAF10107DA4501D100F02FF8AFF29C
:10015000090EBAE80F0013F0010F18BFFB1A43F0A5
:1001600001031847C0560000E0560000103A24BFB3
:1001700078C878C1FAD8520724BF30C830C144BF0C
:1001800004680C607047000000230024002500264E
:10019000103A28BF78C1FBD8520728BF30C148BFEA
:1001A0000B6070471FB51FBD10B510BD04F042F9BC
:1001B0001146FFF7F7FF00F009F804F060F903B407
:1001C000FFF7F2FF03BC01F099FE000010B501F04B
:1001D0002BFE00F045F94FF4A06001F01BFF472112
:1001E00044F61F6001F0C6FC00F0D3FA4FF416503D
:1001F00001F092FE032302220121174800F002FDC4
:10020000042001F0CFFA052001F03FFC002408E0B3
:10021000002000F03FF900B104E0012001F041FEB0
:10022000641CF5E700BF00F0C9FD0C48006808B980
:10023000012000E000200949086001F01BF808488F
:10024000D0F8940108B9012000E0002003490860BB
:1002500000F0F3FF002010BD6800002094812142CF
:1002600000802142704700BFFEE700BFFEE700BFED
:10027000FEE700BFFEE77047704770477047000019
:100280000CB50020019000906C48006840F480306C
:100290006A49086000BF6948006800F400300090B7
:1002A0000198401C0190009818B90198B0F5A06F12
:1002B000F1D16248006800F4003010B101200090D4
:1002C00001E0002000900098012843D15C480068BC
:1002D00040F010005A4908600846006820F003000A
:1002E00008600846006840F0020008605348406813
:1002F000524948600846406848600846406840F4F3
:10030000806048600846406820F47C1048600846D9
:10031000406840F4E81048600846006840F080708B
:10032000086000BF4548006800F000700028F9D060
:100330004248406820F00300404948600846406851
:1003400040F00200486000BF3C48406800F00C00EC
:100350000828F9D10CBD10B5FFF792FF10BD10B5FC
:100360003648006840F0010034490860084640689B
:10037000344908403149486008460068324908401D
:100380002E4908600846006820F48020086008466E
:10039000406820F4FE0048604FF41F008860FFF7BB
:1003A000DAFF4FF000602949086010BD10B5002148
:1003B00000200022214B5B6803F00C0121B10429CD
:1003C00006D0082928D107E0214B224C236027E0E2
:1003D0001F4B204C236023E0184B5B6803F4701024
:1003E000164B5B6803F48032022303EB904022B982
:1003F000194B4343174C23600DE0104B5B6803F42B
:10040000003323B1144B4343124C236003E0104BE1
:100410004343104C236003E00D4B0E4C236000BFA0
:1004200000BF064B5B68C3F303130C4CE15C094B44
:100430001B68CB40074C236010BD00000010024039
:10044000002002400000FFF8FFFFF6FE08ED00E08C
:1004500000127A000000002000093D000400002086
:1004600008B50121442002F05FF91820ADF8000022
:1004700048208DF8030069462C4801F099FE0120C0
:10048000ADF8000028208DF803006946284801F0E7
:100490008FFE08BD10B5044614B10120254908702F
:1004A0002448007858B31021204801F014FF50B1BF
:1004B00008211E4801F00FFF28B101211C4801F05E
:1004C0000AFF01281BD10A2001F0EBFC002019498A
:1004D00008701021154801F0FEFE08B9012010BD7A
:1004E0000821124801F0F7FE08B90220F7E70121C0
:1004F0000F4801F0F0FE012815D10320EFE710218D
:100500000A4801F0E8FE01280DD10821074801F052
:10051000E2FE012807D10121054801F0DCFE10B9F7
:100520000120044908700020D9E7000000180140AC
:1005300000080140140000202DE9F0418AB0044673
:100540000D4616461F46DDF840800121042002F0CA
:10055000EBF80121480602F0F4F84FF48050ADF8B2
:10056000240003208DF8260018208DF8270009A903
:10057000904801F01DFE4FF40060ADF824004820C3
:100580008DF8270009A98B4801F012FE00208DF894
:100590001E008DF81F008DF8200001208DF821002D
:1005A00000208DF822008DF823008DF81A808DF838
:1005B0001B408DF81C608DF81D50ADF8187006A911
:1005C0007D4802F02EF900208DF812008DF81300FE
:1005D0008DF814004FF40070ADF808000020ADF85D
:1005E0000A00ADF80C00ADF80E00ADF810000120C7
:1005F0008DF8150002A802F09EF9012202216E4832
:1006000002F098FC14208DF8040001208DF80500FC
:1006100000208DF8060001208DF8070001A801F0E8
:10062000FEFC00200AB0BDE8F0812DE9F04186B063
:1006300007460D4690460024CDF804804FF4007024
:10064000029000208DF80C008DF80D008DF80E50F2
:1006500000BF05E0395D0DF10F000155601C84B24B
:10066000AC42F7DB01A9544802F054FA06460024D4
:1006700001E0601C84B231464F4802F0E3FA18B939
:1006800040F6FF708442F4DB40F6FF70844203DBE7
:10069000012006B0BDE8F0810020FAE700B585B082
:1006A0006A460021444802F02AFB0098A0F201208B
:1006B00005284FD2DFE800F0030E27344100002068
:1006C00005E00DF10B01095C3C4A1154401C08285F
:1006D000F7DB3FE0082007E0A0F108010DF10B0275
:1006E000515C364A1154401C1028F5DB4FF400725F
:1006F00008213348FFF799FF40F2FF1208213148E3
:10070000FFF793FF26E0102007E0A0F110010DF1A4
:100710000B02515C294A1154401C1828F5DB19E0E2
:10072000182007E0A0F118010DF10B02515C234ADB
:100730001154401C2028F5DB0CE0202007E0A0F13C
:1007400020010DF10B02515C1C4A1154401C282859
:10075000F5DB00BF00BF05B000BD30B585B0054674
:100760000021154802F04EFB10B9002005B030BD45
:100770006A460021104802F0C2FA002404E00DF19C
:100780000B00005D2855641C082CF8D39DF80A0066
:10079000ECE738B50024022308220721002000944A
:1007A000FFF7CAFE0648002101604160054801606C
:1007B000416038BD00080140006400404000002056
:1007C000150000201D00002010B50278521ED20630
:1007D000110E4A1CEE4B9A5C5B5C42EA032282607B
:1007E000D0E90223D21AEB4B9A4202DA8269521CF8
:1007F0008261D0E90223D21A41F270739A4202DD7B
:100800008269521E82618268C2608369C3EB43338E
:1008100082681A448260CA1CDD4B9B5C8A1CDC4CDB
:10082000A25C43EA0222838B5A4312B28280B0F95F
:1008300010308268D21AC3695A43426110BD70B544
:1008400004460E4614F5804F00DAD34CB4F5804FC1
:1008500001DD4FF48044356800220221CF4802F0C8
:1008600069FB042D09DCC4F30721681ECC4A02F899
:1008700010104000401C145408E0C4F30721681F06
:10088000C84A02F810104000401C145401220221F2
:10089000C24802F04FFB70BD2DE9F04F85B0824693
:1008A0000C462046FFF790FFB4F90400AAEB0009BC
:1008B000608C484400B26084484604F05AF9CDE99F
:1008C0000001D4E90C733A4604F0A6F9054603F09A
:1008D00047FE8346B4F9220004F04BF9CDE900014C
:1008E000D4E90E532A4604F097F9074603F038FE80
:1008F0000490B4F92410A9EB010004F03AF907467A
:10090000D4E910532A4604F087F9CDE9000103F039
:1009100027FE0390E06904F0C5FD07465846049998
:1009200004F074FC8046039904F070FC06463946D6
:1009300004F004FE054604F099FD02900FFA89F0D8
:10094000A08421460298FFF77AFF05B0BDE8F08F3A
:100950002DE9F34F8BB00C460B9804F02BFC0546A9
:100960004FF06632904B04F057F900228F4BCDE9DF
:10097000060104F051F9074600228D4B03F072FF87
:10098000824604F0C7F8099061690998A0EB010953
:10099000E08C484400B2E084B4F9260004F0E9F8A1
:1009A0000546D4E914733A4604F036F9CDE904015A
:1009B000B4F92810A9EB010004F0DBF80746D4E9EC
:1009C00016532A4604F028F982468B46484604F01E
:1009D000D0F80746D4E912532A4604F01DF95246CE
:1009E0005B46CDE9000103F0EDFDCDE90201DDE953
:1009F000042303F0E7FDCDE9060104F08BF808902D
:100A000021460898FFF748FF0FFA89F020854846ED
:100A100004F0AFF821F0004105460022654B04F0D8
:100A2000BFF811D2B4F9040004F0A3F821F000419A
:100A300005460022604B04F0B3F805D294F82A0072
:100A4000401C84F82A0002E0002084F82A0094F870
:100A50002A00642806DD652084F82A0001200DB0F4
:100A6000BDE8F08F0020FAE701600268012A02D099
:100A70000268022A16D10023504AC0E90C32504BBA
:100A8000504AC0E90E3200234F4AC0E910324F4BA2
:100A90004F4AC0E912320023036543654D4B4E4A6D
:100AA000C0E916320268032A18D10022424BC0E97D
:100AB0000C23434A434BC0E90E230023474AC0E9B5
:100AC00010324FF03333464AC0E91232454B464AA2
:100AD000C0E91432454B464AC0E916320268042A7E
:100AE00017D10022434BC0E90C234FF033333C4A6B
:100AF000C0E90E320022344BC0E91023304A3E4B8D
:100B0000C0E91223002202654265324B324AC0E935
:100B100016320268052A17D10023384AC0E90C3280
:100B20004FF033332E4AC0E90E320023344AC0E975
:100B30001032234B304AC0E912320022026542656E
:100B4000244B254AC0E916320268012A01D1921EBF
:100B5000C2610268022A01D10122C2610268032A2D
:100B600001D10122C2610268042A01D10122C261BD
:100B70000268052A01D10122C261704710B50446FE
:100B80002046FFF721FE208900B2208210BD000020
:100B90004000002090E8FFFF00C0FFFF006400401D
:100BA000150000201D0000206626334000FFBF40D6
:100BB0000080764000408F40000034400000144028
:100BC0009A9999999999A93F00002040B81E85EB00
:100BD00051B8AE3FFCA9F1D24D62803F00001040F9
:100BE0003333C33F613255302AA9333F7B14AE47BC
:100BF000E17A843F00002E409999C93F00003940B6
:100C0000000024402DE9F04104460F4615461E46DB
:100C100039462046FFF728FF294604F16000FFF718
:100C200023FF314604F1C000FFF71EFFAE494FF429
:100C30009A700151AD49001D0151AD48C4F8300111
:100C4000AC48C4F83C01AC494FF4A2700151AB4927
:100C5000001F0151BDE8F0812DE9F04104460D4629
:100C6000A749284604F040FB8046A34904F066FCEF
:100C70000746A44904F062FC0646304604F0F6FB41
:100C800007462146FFF708FE304604F0EFFB074613
:100C900004F16001FFF700FEBDE8F0812DE9F84F97
:100CA00004460E4615466269616F501800EBD0711C
:100CB0004F10384604F0F6FB8246934904F014FBCB
:100CC0008146904904F010FB80469049404604F06C
:100CD0000BFB83464FF0804104F030FC82468C4988
:100CE00004F02CFC81468B4904F028FCC4F8200158
:100CF0008949284604F020FD8146D4F8201104F0EB
:100D0000E9FC09D38449284604F080FA8146D4F8E6
:100D1000201104F0DFFB10D204F598732A46314607
:100D2000D4F8200100F06EFF814649462046FFF7C7
:100D300093FF0020C4F8280120E07149284604F000
:100D4000D3FA7249009004F0F9FB814621464846E7
:100D5000FFF7FEFD824604F160014846FFF7F8FD0B
:100D60008346BAF1000F02D1BBF1000F05D000207D
:100D7000C4F828010120BDE8F88F00BFD4F828018D
:100D8000401CC4F8280141F28831D4F82801884277
:100D900004DD481CC4F828010120ECE70020EAE744
:100DA00010B504462046FFF70FFD04F16000FFF781
:100DB0000BFD04F1C000FFF707FD10BD10B557484B
:100DC000FFF7DCFE55486030FFF7D8FE5348C030CF
:100DD000FFF7D4FE5248FFF7D1FE5248FFF7CEFE90
:100DE00010BD2DE9F04104460D464F49284604F058
:100DF000A5FB8046434904F0A1FB074604F036FBFF
:100E0000064604F1C0013046FFF746FDBDE8F0811B
:100E10002DE9F84F04468A469146D421085904F03A
:100E200041FB0746384904F05FFA0646354904F0AD
:100E30005BFA05463C4904F057FAC4F824014FF028
:100E40008041484604F078FC0546D4F8241104F0AB
:100E500041FC0AD34FF08041484604F0D7F90546DB
:100E6000D4F8241104F036FB18D204F59E734A46D8
:100E70005146D4F8240100F0C5FE009004F09AF920
:100E800007460022294B03F0EDFC054603F068FB02
:100E9000834659462046FFF7A4FF22E022494846F0
:100EA00004F04CFB064604F1C0013046FFF750FD4C
:100EB00005462DB10020C4F82C010120BDE8F88FB3
:100EC000D4F82C01401CC4F82C0141F28831D4F82C
:100ED0002C01884204DD0020C4F82C010120EDE73C
:100EE00000BF0020EAE700000000964300007A44BB
:100EF000000048440000B442000070420000F0418D
:100F00003E4F6043A7329941B005B6410000B4435B
:100F1000D00F4940CDCC0E42000096426800002020
:100F2000B001002028020020FF21A9400000184045
:100F300070B50446002519E0FE490020FFF7ACFC1F
:100F4000FC4960310020FFF7A7FCFA49C0310020BE
:100F5000FFF7A2FCF8490020FFF79EFCF7490020AC
:100F6000FFF79AFC012000F09CFF6D1CA542E3DB1B
:100F700070BD10B514E0EF490020FFF78DFCED497E
:100F800060310020FFF788FCEA49C0310020FFF7FC
:100F900083FCE9490020FFF77FFC012000F081FF7E
:100FA000E749E84800F0F3FC0028E4D000F067FDD2
:100FB00014E0E0490020FFF76FFCDE4960310020BB
:100FC000FFF76AFCDB49C0310020FFF765FCDA4916
:100FD0000020FFF761FC012000F063FFDA49D848E8
:100FE00000F0D5FC0028E4D000F043FD4FF4FA7087
:100FF000FFF79EFF10BD10B514E0CE490020FFF7AB
:101000004BFCCC4960310020FFF746FCC949C03198
:101010000020FFF741FCC9490020FFF73DFC0120FB
:1010200000F03FFF4FF07E51C84800F0EBFB002876
:10103000E3D000F072FC4FF4FA70FFF779FF10BDB7
:1010400010B514E0BB490020FFF726FCB949603118
:101050000020FFF721FCB749C0310020FFF71CFC3E
:10106000B6490020FFF718FC012000F01AFFB8492C
:10107000B64800F0C7FB0028E4D000F03CFC4FF479
:101080007A70FFF755FF00F03CFC4FF4FA70FFF761
:101090004FFF14E0A7490020FFF7FEFBA549603190
:1010A0000020FFF7F9FBA349C0310020FFF7F4FB54
:1010B000A2490020FFF7F0FB012000F0F2FE4FF004
:1010C0007E51A34800F09EFB0028E3D000F025FCF1
:1010D0004FF4FA70FFF72CFF10BD10B54FF4FA7003
:1010E000FFF726FF14E093490020FFF7D5FB914955
:1010F00060310020FFF7D0FB8E49C0310020FFF7A0
:10110000CBFB8E490020FFF7C7FB012000F0C9FE92
:101110009049914800F076FB0028E4D000F0EBFB0A
:101120004FF47A70FFF704FF00F0F1FB4FF4FA7010
:10113000FFF7FEFE10BD10B514E07E490020FFF75A
:10114000ABFB7C4960310020FFF7A6FB7949C03139
:101150000020FFF7A1FB78490020FFF79DFB01204D
:1011600000F09FFE7649774800F011FC0028E4D09B
:1011700000F085FC14E06F490020FFF78DFB6D49FE
:1011800060310020FFF788FB6A49C0310020FFF77B
:1011900083FB69490020FFF77FFB012000F081FEFF
:1011A0006949674800F0F3FB0028E4D000F061FCD7
:1011B0004FF4FA70FFF7BCFE14E05E490020FFF721
:1011C0006BFB5C4960310020FFF766FB5949C03179
:1011D0000020FFF761FB58490020FFF75DFB01206D
:1011E00000F05FFE5749584800F0D1FB0028E4D0DA
:1011F00010BD10B514E04F490020FFF74DFB4D49DD
:1012000060310020FFF748FB4A49C0310020FFF75A
:1012100043FB49490020FFF73FFB012000F041FE5E
:101220004E49084600F0B3FB0028E4D04FF4FA70B2
:10123000FFF77EFE00F023FC10BD00F068FB00F01D
:101240001EFC02E00120FFF773FEFBE710B500244F
:1012500007E004EB4401374A02EB4110FFF7B4FA10
:10126000641C032CF5DB3448FFF7AEFA3348FFF774
:10127000ABFA10BD2DE9F04F8DB0002400251AE027
:101280003249002000F0BEFA04463049002000F048
:101290007EFB054627490020FFF7FEFA254960310D
:1012A0000020FFF7F9FA2349C0310020FFF7F4FAD4
:1012B000012000F0F6FD002CE2D0002DE0D000244B
:1012C000002516E0264A00211A48FFF7E7FC0446ED
:1012D000244A00211748FFF79BFD054616490020C8
:1012E000FFF7DAFA15490020FFF7D6FA012000F0DF
:1012F000D8FD002CE6D0002DE4D0002614E01A49D9
:101300000C48FFF7A9FC0B49C0310020FFF7C4FAD5
:1013100009490020FFF7C0FA08490020FFF7BCFA8E
:10132000012000F0BEFD761CB6F5FA7FE7DB00F089
:10133000E8FA1BE068000020B0010020280200202D
:101340000000204300005C430000204100004843AF
:101350000000F44200004D430000724300808443CB
:101360000040D3C43333B3420000A0C20020049035
:101370000027804600BF07E0F7490978014101F0E6
:1013800001010BAA1154401C0628F5DB002628E0B9
:101390000BA8805D012811D1304603F0EAFB002242
:1013A000EE4BCDE9000103F037FCCDE9020103F07B
:1013B000D7F808A941F827007F1C11E0304603F058
:1013C000D8FB0022E54BCDE9000103F025FCCDE977
:1013D000020103F0C5F805A941F8280008F1010849
:1013E000761C062ED4DB00265BE02EBB13E0DC4926
:1013F0000020FFF751FADA4960310020FFF74CFA7C
:10140000D8490020FFF748FAD7490020FFF744FAEF
:10141000012000F046FD08A951F82600D34903F049
:10142000F5FE83465A46D149CD48FFF7F1FC002826
:10143000DDD0FFF7E0FD33E0002400252AE008A915
:1014400051F82600C94903F0E1FE8346711E08AA3F
:1014500052F82100C54903F0D9FE5A4601460390CF
:10146000BF48FFF7D5FC0446C1494FF07E5000F05D
:10147000C9F90546BA490020FFF70EFAB8496031AC
:101480000020FFF709FAB8490020FFF705FA01200C
:1014900000F007FD002CD2D0002DD0D0FFF7D0FDFA
:1014A000761C032EA1DB00266DE0AEBB00240025D8
:1014B0002BE005A951F82600AE4903F0A7FEAB4981
:1014C000029003F0A3FE8346A8480A9903F09EFE0B
:1014D0005A4601460390A248FFF79AFC0446A449E5
:1014E0004FF07E5000F08EF905469D490020FFF731
:1014F000D3F99B4960310020FFF7CEF99A490020CB
:10150000FFF7CAF9012000F0CCFC002CD1D0002D4F
:10151000CFD0FFF710FE35E0FFE713E09049002041
:10152000FFF7BAF98E4960310020FFF7B5F98D4910
:101530000020FFF7B1F98C490020FFF7ADF9012039
:1015400000F0AFFC05A951F826008A4903F05EFEC1
:101550008649029003F05AFE8346711E05AA52F88E
:101560002100844903F052FE8049029003F04EFEB0
:101570005A46014603907A48FFF74AFC0028CDD02E
:10158000FFF7D9FD761C032E8FDB00240025A14632
:10159000A24621E07749079803F038FE8346734955
:1015A00003F034FE0646744A31466D48FFF730FCBE
:1015B0000446724A72496A48FFF770FB0546714952
:1015C0006B4800F01FF981466F49704800F0DFF961
:1015D0008246012000F065FC002CDBD0002DD9D024
:1015E000B9F1000FD6D0BAF1000FD3D0002614E025
:1015F00067495B48FFF730FB5949C0310020FFF7CE
:101600004BF958490020FFF747F957490020FFF7E9
:1016100043F9012000F045FC761CB6F5FA7FE7DBC4
:10162000FFF75BFD13E04E490020FFF735F94C4909
:1016300060310020FFF730F94A490020FFF72CF90C
:1016400049490020FFF728F9012000F02AFC514AFF
:1016500049494348FFF7DCFB0028E4D0FFF7C9FD08
:101660000024002516E04C4A44493D48FFF716FB8C
:1016700004464A4A47493A48FFF7CAFB05463949F2
:101680000020FFF709F938490020FFF705F901208C
:1016900000F007FC002CE6D0002DE4D00DB0BDE832
:1016A000F08F70B5002400251AE03149002000F0C9
:1016B000A9F804462E49002000F069F9054628499A
:1016C0000020FFF7E9F8264960310020FFF7E4F831
:1016D0002349C0310020FFF7DFF8012000F0E1FBD3
:1016E000002CE2D0002DE0D013E01D490020FFF7D0
:1016F000D3F81B4960310020FFF7CEF819490020CC
:10170000FFF7CAF818490020FFF7C6F8012000F0DB
:10171000C8FB234A00211248FFF77AFB0028E4D0D7
:1017200070BD10B500F0F9F84FF47A70FFF700FCC7
:1017300000F0E1F84FF47A70FFF7FAFB00F0E1F8FF
:101740004FF47A70FFF7F4FB00F0E7F84FF47A708B
:10175000FFF7EEFB10BD0000250000200000424016
:1017600068000020B0010020280200203333B3427B
:1017700000004843000034430040CB430000F043E6
:101780000040D3C4000072430080844300005C43E7
:101790000000A042F403F6430000E643F483F7435D
:1017A0000000B44210B5044621465F48FFF75CF9DB
:1017B00044F69C215D4802F0E1FD44F69C205A4924
:1017C00008665B4848665B495748C1665A49816666
:1017D00010BD2DE9F04104465849204603F084FD30
:1017E0000746574903F0AAFE0646564903F0A6FEEF
:1017F0000546284603F03AFE06464B49FFF74CF8EB
:10180000BDE8F0812DE9FC5F05460C464E492046B7
:1018100003F06AFD82464FF0804103F065FD81468A
:101820004A4903F061FD8046494903F087FE0746B7
:101830003D49486903F036FE4649009003F054FDE7
:101840008346404903F050FD4149019003F04CFDAF
:1018500082464FF0804103F071FE81463B4903F020
:101860006DFE8046384903F069FE06463A49204637
:1018700003F062FF8046314603F02CFF08D336495F
:10188000204603F0C3FC8046314603F023FE0AD213
:10189000254B643322462946304600F0B3F9804692
:1018A000FFF797FF0EE020493846FFF751F88046D2
:1018B000B8F1000F05D000201B4908670120BDE8E2
:1018C000FC9F00BF1848006F401C17490867084676
:1018D000006F41F28831884204DD00201249086718
:1018E0000120ECE70020EAE710B50446A1B20F485A
:1018F00002F044FD10BD10B544F2E750FFF7F4FFCD
:1019000010BD10B544F21370FFF7EEFF10BD10B517
:1019100044F60710FFF7E8FF10BD10B544F26F5012
:10192000FFF7E2FF10BD0000B001002000040040FE
:10193000008022440000E14300007A435A141D4312
:1019400000007042A73299410000C841D00F4940C1
:101950000000B443B005B6410000A0402DE9F041BD
:1019600004465B49204603F0BFFC0746594903F093
:10197000E5FD0646584903F0E1FD0546284603F01B
:1019800075FD06465549FEF787FFBDE8F0812DE954
:10199000FC5F05460C465249204603F0A5FC8246F2
:1019A0004FF0804103F0A0FC81464E4903F09CFCBF
:1019B00080464D4903F0C2FD07464849486903F097
:1019C00071FD4A49009003F08FFC8346424903F0C1
:1019D0008BFC4549019003F087FC82464FF0804123
:1019E00003F0ACFD81463F4903F0A8FD80463C4929
:1019F00003F0A4FD06463E49204603F09DFE8046C6
:101A0000314603F067FE08D33949204603F0FEFB58
:101A10008046314603F05EFD0AD2304B60332246E9
:101A20002946304600F0EEF88046FFF797FF0EE0BB
:101A30002A493846FEF78CFF8046B8F1000F05D0E2
:101A400000202649C8660120BDE8FC9F00BF23484E
:101A5000C06E401C2149C8660846C06E41F28831FC
:101A6000884204DD00201D49C8660120ECE7002003
:101A7000EAE710B520211F4800F047FC10BD10B563
:101A800020211C4800F043FC10BD38B50446214617
:101A90001248FEF7E9FF0121402000F045FE20201A
:101AA000ADF8000010208DF8030003208DF802002F
:101AB0006946104800F07CFBFFF7DBFF0E48074942
:101AC00008660E49054881660D49416638BD00002B
:101AD0005A141D4300007042A73299412802002089
:101AE0000000C841D00F49400000B443B005B641E2
:101AF0000000A040001801400000FA430000964397
:101B0000000048437FB505460C460121022000F045
:101B100018FEADF80850ADF804400020ADF80A00FA
:101B2000ADF8060001A9344801F032FE0122114649
:101B3000314802F0A4F91D208DF8000000208DF836
:101B4000010003208DF8020001208DF80300684693
:101B500000F065FA0121284802F076F97FBD10B542
:101B60000121254802F039FC18B10121224802F078
:101B700045FC10BD30B589B005460C460121022058
:101B800000F0DFFD0121092000F0CEFD01211B48FE
:101B900000F0DFFB2020ADF8200018208DF8230096
:101BA00003208DF8220008A9154800F001FBADF8CC
:101BB0001850ADF814400020ADF81A00ADF816002A
:101BC00005A90D4801F0E4FD7020ADF804000120E6
:101BD000ADF806000020ADF80C0001A9064801F0A0
:101BE00056FE0821044802F068FA0121024802F07A
:101BF0002BF909B030BD00000004004000081A00B5
:101C0000000C01402DE9FF4F8BB0894692461C46DF
:101C10005146484603F05EFC7ED86168084603F0F2
:101C20008DFC494604900B9803F086FD03904FF01D
:101C30008040216803F082FC0290039903F07EFC4F
:101C40008346049903F0E2FA059003F0B3FACDE974
:101C5000060102F05FFCCDE9080102F081FC0646B6
:101C6000A7686168084603F069FC514604900B9828
:101C700003F062FD0290206880F000404FF0804148
:101C8000019003F05BFC8346029903F057FC03903C
:101C9000049903F0BBFA059003F08CFACDE9060134
:101CA00002F038FCCDE9080102F05AFC80464946B2
:101CB0000B9803F00FFC01D26568B0E049460B9821
:101CC00003F008FD24D851460B9803F003FC1FD8FD
:101CD000404603F06FFACDE90201384603F06AFA94
:101CE000CDE90001DDE9022302F0F3FBCDE90601B5
:101CF000304603F05FFACDE90401DDE9062302F086
:101D0000E8FBCDE9080102F02BFC054687E003E083
:101D1000606880F0004582E06168084603F00EFCD0
:101D2000494605900B9803F007FD0390206880F06A
:101D300000404FF08041019003F000FC02900399B5
:101D400003F0FCFB0490059903F060FA834603F06E
:101D500031FACDE9060102F0DDFB81F00041CDE969
:101D6000080102F0FDFB0646A06880F000476168AC
:101D7000084603F0E3FB514605900B9803F0DCFCAA
:101D800003904FF08040216803F0D8FB0290039944
:101D900003F0D4FB0490059903F038FA834603F06E
:101DA00009FACDE9060102F0B5FB81F00041CDE969
:101DB000080102F0D5FB804649460B9803F08AFCE7
:101DC00003D2606880F0004529E049460B9803F093
:101DD00081FB23D851460B9803F07CFC1ED840466B
:101DE00003F0E8F9CDE90201384603F0E3F9CDE963
:101DF0000001DDE9022302F04BFBCDE9060130468C
:101E000003F0D8F9CDE90401DDE9062302F040FB37
:101E1000CDE9080102F0A4FB054600E0656828460C
:101E20000FB0BDE8F08F000010B56FF0040000F0B7
:101E300040F92E4800682E49B0FBF1F02D4908709A
:101E40000846007800EB4001C1EBC0104FF6FF716F
:101E500001EAC0002849088010BD0146254A1278D1
:101E60004A434FF0E0235A6100229A611A461269F0
:101E700042F001021A6100BF4FF0E022106900F049
:101E800001021AB100F48032002AF5D04FF0E022AE
:101E9000126922F001024FF0E0231A6100229A61D8
:101EA00070470146144A12884A434FF0E0235A61B2
:101EB00000229A611A46126942F001021A6100BFBB
:101EC0004FF0E022106900F001021AB100F48032F4
:101ED000002AF5D04FF0E022126922F001024FF003
:101EE000E0231A6100229A61704700000000002080
:101EF00000127A00260000202800002000BF704752
:101F000000BF314A128802F04002002AF9D0C2B262
:101F10002D4B1B1D1A80704710B586B00446012159
:101F200044F2040000F000FC4FF40070ADF814001F
:101F300003208DF8160018208DF8170005A92348F6
:101F400000F036F94FF48060ADF8140004208DF8ED
:101F5000170005A91D4800F02BF925208DF8000079
:101F600003208DF801008DF8020001208DF8030098
:101F7000684600F054F801940020ADF80800ADF870
:101F80000A00ADF80C00ADF810000C20ADF80E0002
:101F900001A90D4801F067F9012240F225510A48D4
:101FA00001F0F9F90121084801F0E9F906B010BD86
:101FB00010B5054801F054FA05490870002102489F
:101FC00001F0DDF910BD00000038014000080140BB
:101FD000250000200948804709480047FEE7FEE742
:101FE000FEE7FEE7FEE7FEE7FEE7FEE7FEE7FEE7C9
:101FF00004480549054A064B704700005F03000886
:1020000031010008F8020020F8080020F804002040
:10201000F804002031490143314A1160704770B51E
:10202000002100230F22C47804B32D4C246804F44B
:10203000E064C4F5E064210AC1F10403CA404478B5
:1020400004FA03F18478144021430901254C0678F1
:10205000A155047804F01F050124AC4005786D11EA
:10206000AD0005F1E025C5F8004109E0047804F071
:102070001F050124AC401C4D0678761145F826401A
:1020800070BD1A4A0A400243154B1B1F1A60704765
:1020900039B1134A121D12680243114B1B1D1A60FD
:1020A00006E00F4A121D126882430D4B1B1D1A6079
:1020B0007047042808D14FF0E021096941F004017C
:1020C0004FF0E022116107E04FF0E021096921F0B3
:1020D00004014FF0E0221161704700000000FA0592
:1020E0000CED00E000E400E080E100E080FFFF1F75
:1020F00010B50446CC48844208D10121042000F0E8
:102100002DFB0021042000F029FB46E0C748844253
:1021100008D10121082000F021FB0021082000F057
:102120001DFB3AE0C248844208D10121102000F092
:1021300015FB0021102000F011FB2EE0BD48844269
:1021400008D10121202000F009FB0021202000F00F
:1021500005FB22E0B848844208D10121402000F06C
:10216000FDFA0021402000F0F9FA16E0B34884425D
:1021700008D10121802000F0F1FA0021802000F038
:10218000EDFA0AE0AE48844207D10121801500F043
:10219000E5FA0021A01500F0E1FA10BD10B501210B
:1021A000084600F0DBFA0021012000F0D7FA10BD4C
:1021B0002DE9F041024600250026002000230024DE
:1021C000002791F803C00CF00F0591F803C00CF044
:1021D000100CBCF1000F03D091F802C04CEA0505C9
:1021E00091F800C0BCF1000F31D0146800202BE042
:1021F0004FF0010C0CFA00F3B1F800C00CEA030632
:102200009E4220D183004FF00F0C0CFA03F7BC4321
:1022100005FA03FC4CEA040491F803C0BCF1280F52
:1022200006D14FF0010C0CFA00FCC2F814C00AE011
:1022300091F803C0BCF1480F05D14FF0010C0CFA26
:1022400000FCC2F810C0401C0828D1D31460B1F8BB
:1022500000C0BCF1FF0F34DD546800202EE000F117
:10226000080C4FF0010808FA0CF3B1F800C00CEAB2
:1022700003069E4221D183004FF00F0C0CFA03F7A6
:10228000BC4305FA03FC4CEA040491F803C0BCF11A
:10229000280F05D100F1080C08FA0CF8C2F81480D8
:1022A00091F803C0BCF1480F07D100F1080C4FF0C2
:1022B000010808FA0CF8C2F81080401C0828CED398
:1022C0005460BDE8F0814FF6FF71018002218170FA
:1022D0000421C17070470246002093680B400BB187
:1022E000012000E0002070470146886880B27047F6
:1022F00002460020D3680B400BB1012000E0002013
:1023000070470146C86880B27047016170474161FB
:1023100070470AB1016100E041617047C1607047D8
:102320004FF480320A4382618161826182698269ED
:10233000704702460020434B18684FF680731840E0
:1023400040EA021008433F4B186070473E49C8619D
:102350007047F0B50A46002300240021002500F054
:102360000046B6F1004F02D1364EF16901E0354E1C
:102370007168C0F3034583B200F44016B6F5401F00
:1023800008D121F070612F4E766826F070662D4FCF
:102390007E6012E000F48016B6F5801F06D1032699
:1023A00006FA05F4A14341F0706106E0460D3601DE
:1023B00003FA06F6B14341F0706122B1460D3601D1
:1023C00003FA06F6314300F00046B6F1004F02D1A1
:1023D0001C4EF16101E01B4E7160F0BD30B5002272
:1023E0008B071C0F0F2303FA04F2164B08338C10D3
:1023F00053F824309343134C08348D1044F825309F
:1024000023468C1053F824308C07240F00FA04F470
:1024100023430C4C08348D1044F8253030BD0A4954
:10242000DC3108607047000000080140000C0140EA
:10243000001001400014014000180140001C014040
:10244000002001400000014000002042DF480068F9
:1024500040F00100DD49086008464068DC4908405A
:10246000DA49486008460068DA490840D7490860F8
:102470000846006820F4802008600846406820F480
:10248000FE0048604FF41F0088607047CF4909681C
:1024900021F48031CD4A11601146096821F4802170
:1024A0001160B0F5803F03D0B0F5802F0ED106E06B
:1024B000C649096841F48031C44A116007E0C34944
:1024C000096841F4A021C14A116000E000BF00BFCB
:1024D000704710B501460022002300204A11012A4E
:1024E00002D1BA4C236806E0022A02D1B74C236A13
:1024F00001E0B64C636A01F01F02012494401C40C5
:102500000CB1012000E0002010BD38B50020009083
:102510000024002500BF3120FFF7DBFF05460098AF
:10252000401C00900098B0F5A06F01D0002DF2D0B3
:102530003120FFF7CEFF08B1012400E0002420463F
:1025400038BD01460020A14A106820F0F80040EA9A
:10255000C10010607047A049086070470246002023
:102560009A4B586820F47C1042EA01031843974BB9
:102570005860704798490866704701460020934AA2
:10258000506820F003000843506070478F4840684F
:1025900000F00C007047014600208C4A506820F083
:1025A000F00008435060704701460020874A506899
:1025B00020F4E06008435060704701460020834AE1
:1025C000506820F4605040EAC1005060704729B163
:1025D0007E4A527A02437D4B5A7204E07B4A527A19
:1025E00082437A4B5A7270477B49D83108607047F2
:1025F00001460020754A506820F44040084350606E
:1026000070470021714A20321170704A82F8201000
:10261000012802D004280AD104E001216B4A2032AB
:10262000117005E00521694A2032117000E000BFF9
:1026300000BF70476949086070476449096A0143EF
:10264000624A11627047654944390860704730B585
:1026500000210022002400235C4D6D6805F00C0170
:1026600021B1042905D0082923D105E05C4D05607E
:1026700022E05B4D05601FE0544D6D6805F470125B
:10268000524D6D6805F48034022505EB92421CB969
:10269000544D554305600BE04C4D6D6805F4003515
:1026A0001DB1504D5543056002E04D4D5543056049
:1026B00002E04B4D056000BF00BF444D6D6805F062
:1026C000F0010909484D6B5C0568DD4045603F4DF0
:1026D0006D6805F4E061090A434D6B5C4568DD40B7
:1026E00085603A4D6D6805F46051C90A3E4D6B5CDA
:1026F0004568DD40C560354D6D6805F44041890B86
:102700003A4D6B5CC568B5FBF3F5056130BD29B189
:102710002E4A526902432D4B5A6104E02B4A5269FA
:1027200082432A4B5A61704729B1284A9269024371
:10273000264B9A6104E0254A92698243234B9A61B1
:10274000704729B1214AD2690243204BDA6104E083
:102750001E4AD26982431D4BDA61704729B11B4A78
:10276000D2680243194BDA6004E0184AD268824307
:10277000164BDA60704729B1144A12690243134BB1
:102780001A6104E0114A12698243104B1A617047C2
:1027900012494039086070470F49C86470470B49B7
:1027A000C87170470948406A40F080700749486224
:1027B000704701460020054A92680A400AB101208C
:1027C00000E0002070470149887270470010024005
:1027D0000000FFF8FFFFF6FE000042428004424284
:1027E00000127A0000093D002A0000203A00002073
:1027F00010B50446FE48844209D101214806FFF77E
:10280000BAFF00214FF00070FFF7B5FF08E001218B
:102810008806FFF7B0FF00214FF08060FFF7ABFFA5
:1028200010BD30B5024600200023146824F00204D5
:102830001460146844F00104146000E05B1C5468E8
:1028400004F001041CB94FF6FF74A342F6D154689A
:1028500004F001040CB900206CE08C79012C04D147
:10286000146844F08004146003E0146824F08004C9
:102870001460CC79012C04D1146844F04004146035
:1028800003E0146824F0400414600C7A012C04D195
:10289000146844F02004146003E0146824F0200459
:1028A00014604C7A012C04D1146844F010041460B4
:1028B00003E0146824F0100414608C7A012C04D115
:1028C000146844F00804146003E0146824F0080459
:1028D0001460CC7A012C04D1146844F00404146010
:1028E00003E0146824F0040414608C78A407CD7805
:1028F00044EA05640D7944EA05444D7944EA0554F7
:102900000D886D1E2C43D461146824F001041460FA
:10291000002300E05B1C546804F001041CB14FF676
:10292000FF74A342F6D1546804F001040CB10020F6
:1029300000E0012030BD10B50021837A012202FAA7
:1029400003F1AC4A126842F00102AA4B1A60A94A8C
:102950001C3212688A43A74B1C331A60027BCAB927
:10296000A44A0C3212688A43A24B0C331A60428884
:10297000C38842EA03439F4A4032847A42F83430A3
:102980000288838842EA03439A4A4032847A02EBFF
:10299000C4025360027B012A19D1964A0C32126894
:1029A0000A43944B0C331A604288038842EA03437B
:1029B000904A4032847A42F83430C288838842EAAE
:1029C00003438C4A4032847A02EBC4025360C27AD9
:1029D0003AB9884A121D12688A43864B1B1D1A6039
:1029E00006E0844A121D12680A43824B1B1D1A60BE
:1029F000028932B97F4A143212688A437D4B1433FC
:102A00001A600289012A06D17A4A143212680A43EE
:102A1000784B14331A60427B012A06D1754A1C3266
:102A200012680A43734B1C331A60724A126822F010
:102A30000102704B1A6010BD00218171C1710172D9
:102A400041728172C1728170C170032101710221D2
:102A500041710121018070476649096841F0010117
:102A6000644A11601146096843F60E729143614A47
:102A700011601146096841EA002111601146096898
:102A800021F001011160704721B1026842F48032E7
:102A9000026003E0026822F4803202607047E1B114
:102AA000026842F0800202604FF4C272125842F48F
:102AB00080734FF4C27213504FF4CA72125842F42A
:102AC00080734FF4CA7213504FF4D272125842F40A
:102AD00080734FF4D27213501BE0026822F0800220
:102AE00002604FF4C272125822F480734FF4C27223
:102AF00013504FF4CA72125822F480734FF4CA7202
:102B000013504FF4D272125822F480734FF4D272E1
:102B10001350704710B502460020936803F080639D
:102B2000B3F1806F00D110E0936803F00063B3F15C
:102B3000006F01D1012008E0936803F08053B3F1E6
:102B4000805F01D1022000E00420042879D002F542
:102B5000C07303EB00131B6803F0010402F5C0739C
:102B600003EB00131C600B7A7BB94B7A0C8843EAA9
:102B7000445302F5C07404EB00142468234302F5A7
:102B8000C07404EB0014236010E00B7A4C6843EA35
:102B9000C4034C7A234302F5C07404EB0014246888
:102BA000234302F5C07404EB001423608B7A03F016
:102BB0000F038B7202F5C07303EB00135B6823F005
:102BC0000F0402F5C07303EB00135C6002F5C073E1
:102BD00003EB00135B688C7A234302F5C07404EBAB
:102BE000001463608B7B1C064B7B44EA034403E0C8
:102BF00000640040006600400B7B44EA0323CC7A6B
:102C0000234302F5C07404EB0014A3608B7C1C0604
:102C10004B7C44EA03440B7C44EA0323CC7B2343F0
:102C200002F5C07404EB0014E36002F5C07303EB1B
:102C300000131B6843F0010402F5C07303EB00139B
:102C40001C6010BD10B50246002321B1012907D038
:102C500002290FD109E09068F94C00EA04030BE067
:102C60009068F84C00EA040306E09068F64C00EA2D
:102C7000040301E0002300BF00BFF44C181BA34273
:102C800016D007DC83B16FF08060184470B1022861
:102C900018D111E0B0F5007F10D0ED4C204448B1C0
:102CA000B0F5003F0ED10BE002230DE000230BE056
:102CB000002309E0002307E0012305E0012303E0EE
:102CC000012301E0002300BF00BFD8B210BD21B135
:102CD000012907D002290FD109E0826842F0800261
:102CE00082600AE0826842F40042826005E0826805
:102CF00042F40002826000E000BF00BF704710B5E0
:102D000000F5D87303EB01131B6803F0040313727F
:102D1000137A53B900F5D87303EB01131B6840F223
:102D2000FF7404EA5353136009E000F5D87303EB12
:102D300001131B686FF0604404EAD303536000F58D
:102D4000D87303EB01131B6803F00203537200F501
:102D5000D87303EB01135B6803F00F03937200F564
:102D6000D87303EB01135B681B0AD37400F5D873A7
:102D700003EB01139B68D37200F5D87303EB0113C7
:102D80009B681C0A147300F5D87303EB01139B684E
:102D90001C0C547300F5D87303EB01139B681B0ED6
:102DA000937300F5D87303EB0113DB68D37300F55D
:102DB000D87303EB0113DB681C0A147400F5D87395
:102DC00003EB0113DB681C0C547400F5D87303EBA0
:102DD0000113DB681B0E937421B9C36843F0200311
:102DE000C36003E0036943F02003036110BD21B910
:102DF000C26842F02002C26003E0026942F0200291
:102E0000026170470246002019B9D36803F003003D
:102E100006E0012903D1136903F0030000E000205C
:102E2000704710B502460B4600204FF6FF71BBB944
:102E3000146824F0020444F00104146000E0491E08
:102E4000546804F00304012C01D00029F7D1546820
:102E500004F00304012C01D0002032E0012030E016
:102E6000012B13D1146824F00304146000E0491E00
:102E7000546804F003040CB10029F8D1546804F03C
:102E800003040CB100201CE001201AE0022B17D132
:102E9000146824F0010444F00204146000E0491EA8
:102EA000546804F00304022C01D00029F7D15468BF
:102EB00004F00304022C01D0002002E0012000E015
:102EC000002010BD014600200A6822F0010242F0F5
:102ED00002020A604A6802F00302022A00D10120BD
:102EE000704701464FF6FF7200200B6823F0020383
:102EF0000B6000E0521E4B6803F00203022B01D16D
:102F0000002AF7D14B6803F00203022B00D0012006
:102F10007047014600208A6902F070007047014640
:102F200000208A69100E7047014600208A69C2F3AA
:102F3000074070471AB143690B43436102E043699C
:102F40008B434361704710B50246002001F47003C3
:102F500043B19369C1F3130423400BB101202DE069
:102F600000202BE001F0807343B15368C1F31304D8
:102F700023400BB1012021E000201FE001F000639D
:102F800043B19368C1F3130423400BB1012015E052
:102F9000002013E001F0007343B1D368C1F31304C0
:102FA00023400BB1012009E0002007E01369C1F3C1
:102FB000130423400BB1012000E0002010BD0022CB
:102FC000244B994202D10023836111E0C1F3130223
:102FD00001F000730BB1C2600AE001F080630BB135
:102FE000026105E001F000630BB1826000E0426025
:102FF00070470246002002EA01030BB1012000E005
:103000000020704770B504460D46002660692840D0
:10301000002872D0B5F5807F69D01DDC082D42D024
:1030200006DC012D2DD0022D31D0042D7FD134E0CE
:10303000102D3ED0202D42D0402D78D145E000000B
:103040000300000400030008000003100001000852
:103050000001FFF77000F030B5F5004F61D009DCDA
:10306000B5F5007F4AD0B5F5806F4DD0B5F5006F4E
:103070005DD150E0B5F5803F2DD0B5F5003F56D17C
:103080002FE0A0685549FFF7B4FF064651E0E0681D
:103090000321FFF7AEFF06464BE0E0680821FFF78B
:1030A000A8FF064645E0E0681021FFF7A2FF0646AC
:1030B0003FE020690321FFF79CFF064639E02069C5
:1030C0000821FFF796FF064633E020691021FFF73D
:1030D00090FF06462DE060680821FFF78AFF06464C
:1030E00027E060681021FFF784FF064621E0A06911
:1030F0000121FFF77EFF06461BE01BE0A0690221CD
:10310000FFF777FF064614E0A0690421FFF771FF7F
:1031100006460EE00BE0A0697021FFF76AFF064645
:1031200007E060680421FFF764FF064601E000261F
:1031300000BF00E00026304670BDB1F5007F3AD0F8
:103140000FDC202928D006DC01291CD004291DD041
:10315000082940D11DE0402921D0B1F5807F3AD126
:1031600026E0B1F5004F31D006DCB1F5806F25D0F7
:10317000B1F5006F2FD124E0B1F5803F12D0B1F549
:10318000003F28D111E0154A826025E00822C26084
:1031900022E01022C2601FE0082202611CE010221F
:1031A000026119E00822426016E01022426013E03A
:1031B0000422426010E0042242600DE004224260DA
:1031C0000AE0002282610422426005E0002282615E
:1031D0000422426000E000BF00BF7047010101000F
:1031E00010B50446FB48844209D101218803FFF74A
:1031F000B5FA00214FF48040FFF7B0FA32E0F6480C
:10320000844209D101214804FFF7B5FA00214FF4A7
:103210000030FFF7B0FA25E0F048844209D10121DF
:103220008804FFF7A8FA00214FF48020FFF7A3FAE3
:1032300018E0EB48844209D10121C804FFF79BFA4A
:1032400000214FF40020FFF796FA0BE0E548844296
:1032500008D101210805FFF78EFA00214FF48010F4
:10326000FFF789FA10BD2DE9F04786B005460E46F6
:103270000024A24600BFA1460027B08900B100BFCC
:103280002F462C8A4CF6FF700440F08804432C82B1
:10329000AC894EF6F3100440B08831890843718937
:1032A00008430443AC81AC8A4FF6FF400440B08928
:1032B0000443AC8201A8FFF7CAF9C648874202D18D
:1032C000DDF810A001E0DDF80CA0A88900F40040B2
:1032D00040B10AEBCA0000EB0A1031684900B0FBAC
:1032E000F1F807E00AEBCA0000EB0A103168890028
:1032F000B0FBF1F86420B8FBF0F004012009642170
:1033000001FB1089A88900F4004040B1322000EB95
:10331000C900B0FBF1F000F00700044308E03220E0
:1033200000EB09106421B0FBF1F000F00F00044342
:103330002C8106B0BDE8F0874FF4165101600021E2
:103340008180C18001810C214181002181817047F0
:1033500010B502460020108A4FF2FF0318400B8878
:103360004C8823438C882343CC8823431843108202
:1033700010BD0021018041808180C180704721B152
:10338000828942F40052828104E082894DF6FF7303
:103390001A4082817047F0B50346002400260025BC
:1033A000002040F66A17B94200D100BF1846C1F3A9
:1033B000421401F01F06012707FA06F5012C01D17E
:1033C0000C3004E0022C01D1103000E014301AB1AE
:1033D00007682F43076002E00768AF430760F0BD4E
:1033E0001AB1838A0B43838202E0838A8B438382F0
:1033F0007047028A4FF6F0731A400282028A0A432B
:103400000282704782894FF2FF731A40828182895B
:103410000A438281704721B1828942F0020282818F
:1034200004E082894FF6FD731A4082817047028A58
:103430004FF6DF731A400282028A0A430282704703
:1034400021B1028A42F48042028204E0028A4BF6F1
:10345000FF731A4002827047C1F3080282807047EE
:1034600001468888C0F308007047818941F0010156
:1034700081817047028BD2B20283028B42EA012221
:1034800002837047028B02F47F420283028B0A435D
:103490000283704721B1828A42F02002828204E0D6
:1034A000828A4FF6DF731A408282704721B1828A86
:1034B00042F01002828204E0828A4FF6EF731A40D3
:1034C0008282704721B1828A42F00802828204E03F
:1034D000828A4FF6F7731A408282704721B182893F
:1034E00042F40042828103E08289C2F30E028281AB
:1034F000704721B1828A42F40062828204E0828AAB
:103500004FF2FF731A4082827047828A4FF6FB7334
:103510001A408282828A0A438282704721B1828A5B
:1035200042F00202828204E0828A4FF6FD731A4062
:103530008282704702460020B1F5007F00D100BFB3
:1035400013880B400BB1012000E00020704701F40C
:103550000072B2F5007F00D100BFCA4302807047FD
:1035600070B50246002400230025002040F66A16AC
:10357000B14200D100BFC1F3421501F01F03012683
:1035800006FA03F3012D02D19689334006E0022D9D
:1035900002D1168A334001E0968A33400C1201268C
:1035A00006FA04F41688344013B10CB1012000E08F
:1035B000002070BD10B50022002340F66A14A1421D
:1035C00000D100BF0A1201249440A3B2DC4304805E
:1035D00010BD000000380140004400400048004099
:1035E000004C00400050004010B50446FE488442A4
:1035F00008D10121C014FFF7B1F80021E014FFF752
:10360000ADF8C4E0B4F1804F08D101210846FFF7BE
:10361000B2F800210120FFF7AEF8B8E0F348844289
:1036200008D101210220FFF7A6F800210220FFF7B0
:10363000A2F8ACE0EE48844208D101210420FFF753
:103640009AF800210420FFF796F8A0E0E9488442A8
:1036500008D101210820FFF78EF800210820FFF78C
:103660008AF894E0E448844208D101211020FFF751
:1036700082F800211020FFF77EF888E0DF488442BE
:1036800008D101212020FFF776F800212020FFF744
:1036900072F87CE0DA48844208D101214014FFF737
:1036A0005DF800216014FFF759F870E0D5488442B6
:1036B00009D10121C804FFF751F800214FF400207F
:1036C000FFF74CF863E0D048844209D10121080596
:1036D000FFF744F800214FF48010FFF73FF856E061
:1036E000CA48844209D101214805FFF737F8002173
:1036F0004FF40010FFF732F849E0C548844208D182
:1037000001214020FFF737F800214020FFF733F870
:103710003DE0C048844208D101218020FFF72BF80A
:1037200000218020FFF727F831E0BB48844208D110
:1037300001218015FFF71FF80021A015FFF71BF8E6
:1037400025E0B648844209D101210804FFF706F8B4
:1037500000214FF48030FFF701F818E0B0488442B0
:1037600009D101214804FEF7F9FF00214FF4003090
:10377000FEF7F4FF0BE0AB48844208D10121880436
:10378000FEF7ECFF00214FF48020FEF7E7FF10BDAD
:1037900000220288944B98420ED0994B98420BD04D
:1037A000B0F1804F08D0914B984205D0904B984291
:1037B00002D0904B984204D14FF68F731A404B8839
:1037C0001A438D4B984207D08C4B984204D04FF649
:1037D000FF431A40CB881A4302808B8883850B886D
:1037E0000385814B98420BD0854B984208D08B4B78
:1037F000984205D08A4B984202D08A4B984201D118
:103800000B7A038601238382704770B5002400225F
:103810000023058C4FF6FE7635400584028C8388A4
:10382000048B4FF68F752C40B51E2C400D882C4311
:10383000751E2A400D892A434D882A436A4DA842A5
:103840000BD06F4DA84208D0744DA84205D0744DDE
:10385000A84202D0734DA84213D14FF6F7752A4003
:103860004D892A434FF6FB752A408D882A434FF62F
:10387000FF652B404FF6FF552B408D892B43CD899B
:103880002B4383800483CD888586028470BD70B508
:10389000002400220023058C4FF6EF763540058486
:1038A000028C8388048B48F6FF752C404FF6FF4549
:1038B0002C400D884FF6FF7606EA05252C434FF67F
:1038C000DF752A400D8906EA05152A434D8806EA68
:1038D00005152A43444DA84202D0494DA8421DD1A6
:1038E0004FF67F752A404D894FF6FF7606EA05159B
:1038F0002A434FF6BF752A408D8806EA05152A43EC
:103900004FF6FF352B404FF2FF752B408D8906EAAD
:1039100085052B43CD8906EA85052B4383800483E7
:10392000CD880587028470BD70B500240022002375
:10393000058C4FF6FF6635400584028C8388848BA6
:103940004FF68F752C404FF6FC752C400D882C439C
:103950004FF6FF552A400D894FF6FF7606EA0525FA
:103960002A434D8806EA05252A431F4DA84202D066
:10397000234DA8421DD14FF2FF752A404D894FF6C5
:10398000FF7606EA05252A434FF6FF352A408D8843
:1039900006EA05252A434EF6FF752B404DF6FF75C6
:1039A0002B408D8906EA05152B43CD8906EA0515BE
:1039B0002B4383808483CD888587028470BD70B556
:1039C000002200230024058C4EF6FF763540058446
:1039D000038C8488828B48F6FF752A404FF6FF459A
:1039E0002A400D8820E00000002C01400004004027
:1039F00000080040000C004000100040001400408F
:103A000000340140004C014000500140005401408E
:103A100000180040001C0040002000400040014011
:103A200000440140004801404FF6FF7606EA0525B4
:103A30002A434DF6FF752B400D8906EA05352B43C9
:103A40004D8806EA05352B43FA4DA84202D0FA4DBF
:103A5000A84208D14BF6FF752C408D894FF6FF76B2
:103A600006EA85152C4384808283CD88A0F84050D7
:103A7000038470BD828B4FF2FF331A408283828BA6
:103A80004FF6FF7303EA01231A4382837047F0B5B0
:103A90000C461546002200210026078C4EF6FF7CBE
:103AA00007EA0C070784828B018C4FF6FF7707EA41
:103AB000043640F6FF473A404FF6FF7707EA0527FE
:103AC0003A434FF6FF7707EA03373A43D94FB842F4
:103AD0000ED0D94FB8420BD0B0F1804F08D0D74F9D
:103AE000B84205D0D64FB84202D0D64FB84206D120
:103AF0004DF6FF77394046F48057394305E047F6E5
:103B0000FF57394044F48057394382830184F0BD24
:103B1000828B4FF6F3731A408283828B0A4382832F
:103B20007047F0B50C461546002200210026078C90
:103B30004FF6FF6C07EA0C070784828B018C4FF667
:103B4000FF7707EA04264FF60C773A404FF6FF77E7
:103B500007EA03172F433A43B64FB8420ED0B64F89
:103B6000B8420BD0B0F1804F08D0B44FB84205D066
:103B7000B34FB84202D0B34FB84206D14FF6FF5709
:103B8000394046F48077394305E04FF2FF5739401A
:103B900044F48077394382830184F0BD028B4FF275
:103BA000FF331A400283028B4FF6FF7303EA0123AF
:103BB0001A4302837047F0B50C46154600220021D7
:103BC0000026078C4FF6EF7C07EA0C070784028B70
:103BD000018C4FF6FF7707EA041640F6FF473A409C
:103BE0004FF6FF7707EA03373A434FF6FF7707EAC6
:103BF00005273A438F4FB8420ED08F4FB8420BD0B3
:103C0000B0F1804F08D08D4FB84205D08C4FB842EC
:103C100002D08C4FB84206D14FF6DF77394046F0DC
:103C20001007394305E04FF65F77394044F010073D
:103C3000394302830184F0BD028B4FF6F3731A40BF
:103C40000283028B0A4302837047F0B50C46154687
:103C500000220021068C4FF6FE773E400684028B40
:103C6000018C4FF60C7632407E1C06EA03162E437A
:103C70003243704EB0420ED06F4EB0420BD0B0F116
:103C8000804F08D06D4EB04205D06D4EB04202D08C
:103C90006C4EB04206D14FF6FD76314044F001063D
:103CA000314305E04FF6F576314044F001063143EB
:103CB00002830184F0BD70B505460C465D4885421F
:103CC0000ED05D4885420BD0B5F1804F08D05B48DF
:103CD000854205D05A48854202D05A48854200D1D3
:103CE00000E000BF208850B92389A2886188284657
:103CF000FFF7ABFFE1882846FFF79EFF25E020880D
:103D000004280AD12389A28861882846FFF753FF37
:103D1000E1882846FFF742FF17E0208808280AD1EB
:103D20002389A28861882846FFF7FBFEE1882846A0
:103D3000FFF7EEFE09E02389A28861882846FFF795
:103D4000A6FEE1882846FFF795FE70BD2DE9F041FB
:103D500005460C4600260127608808B9022600E0C7
:103D60000026A088012801D1022700E00127208831
:103D7000A0B92389A28861882846FFF766FFE188F9
:103D80002846FFF759FF23893A4631462846FFF770
:103D900012FFE1882846FFF701FF13E02389A2887C
:103DA00061882846FFF707FFE1882846FFF7F6FEFF
:103DB00023893A4631462846FFF747FFE1882846DF
:103DC000FFF73AFFBDE8F0810A884B881A438B88D9
:103DD0001A43CB881A430B891A434B891A438B89A0
:103DE0001A43A0F8442070474FF6FF7181800021EC
:103DF0000180C180418001727047002101804180B3
:103E00008180C180018141818181C1817047002110
:103E100001804180012181800021C18001817047A2
:103E20000021018041808180C180018141818181A7
:103E300070470000002C01400034014000040040A5
:103E400000080040000C004021B1028842F001024D
:103E5000028004E002884FF6FE731A400280704729
:103E600031B1B0F8442042F40042A0F8442005E00B
:103E7000B0F84420C2F30E02A0F8442070471AB1F3
:103E800083890B43838102E083898B43838170475D
:103E90008182704741EA0203A0F8483070471AB1A6
:103EA00083890B43838102E083898B43838170473D
:103EB00001894FF6F8721140018170470A460021CE
:103EC00001894FF68F73194011430181704730B556
:103ED00004460D4629462046FFF7F0FF208940F0B2
:103EE0000700208130BD2DE9F04104460D461646FD
:103EF0001F46602D06D13B46012231462046FFF782
:103F00005AFE05E03B46012231462046FFF79DFE62
:103F100029462046FFF7D2FF208940F00700208184
:103F2000BDE8F08130B50C4600210189C9B24FF6D9
:103F3000FF7505EA0325154325432943018130BD5B
:103F40002DE9F04105460E461746984600244346A3
:103F50003A4631462846FFF7E5FF2C894FF6F870C0
:103F6000044044F007044FF68F70044044F070049E
:103F70002C81BDE8F081F0B504460D4616461F467B
:103F80003B46324629462046FFF7CCFF208940F4C5
:103F900080402081F0BD0185828270470A46002161
:103FA00001884FF68F731940114301807047F0B5B7
:103FB0000C4615461E460021002200230189028B73
:103FC000038C4FF6F877394021434FF6FC473A40CF
:103FD00040F201173A434FF6DD773B404FF6FF774B
:103FE00007EA06172F433B43018102830384F0BD98
:103FF0000A460021018B4FF68F731940114301834C
:1040000070470A460021018B48F6FF7319404FF6AE
:10401000FF7303EA02231943018370470A46002114
:10402000818B4FF68F7319401143818370470A4685
:104030000021818B48F6FF7319404FF6FF7303EAA6
:10404000022319438183704721B1028842F0800224
:10405000028004E002884FF67F731A4002807047A6
:1040600021B1828842F00402828004E082884FF607
:10407000FB731A408280704721B1828842F00802A7
:10408000828004E082884FF6F7731A40828070477E
:1040900021B1828842F00102828004E082884FF6DA
:1040A000FE731A40828070470A460021018B4FF64A
:1040B000F77319401143018370470A460021018BB1
:1040C0004FF2FF7319404FF6FF7303EA02231943BF
:1040D000018370470A460021818B4FF6F773194020
:1040E0001143818370470A460021818B4FF2FF7391
:1040F00019404FF6FF7303EA022319438183704787
:104100000A460021018B4FF6FB73194011430183CE
:1041100070470A460021018B4FF6FF3319404FF6D6
:10412000FF7303EA02231943018370470A46002103
:10413000818B4FF6FB7319401143818370470A4608
:104140000021818B4FF6FF3319404FF6FF7303EACE
:1041500002231943818370470A460021018B4FF6E1
:104160007F7319401143018370470A460021018B78
:10417000C1F30E014FF6FF7303EA022319430183D3
:1041800070470A460021818B4FF67F731940114317
:10419000818370470A460021818BC1F30E014FF6DF
:1041A000FF7303EA02231943818370470A46002103
:1041B000018C4FF6FD7319401143018470470A4684
:1041C0000021018C4FF6F7731940114301847047A9
:1041D0000A460021018C4FF6DF7319404FF6FF733A
:1041E00003EA02131943018470470A460021018C37
:1041F0004FF67F7319404FF6FF7303EA021319431A
:10420000018470470A460021018C4FF6FF53194084
:104210004FF6FF7303EA02231943018470470A46ED
:104220000021018C4FF2FF7319404FF6FF7303EA30
:1042300002231943018470470A460021018C4DF680
:10424000FF7319404FF6FF7303EA023319430184E9
:10425000704730B5002301248C40A3B2048C9C43EA
:104260000484048C02FA01F5ADB22C43048430BD01
:1042700030B5002304248C40A3B2048C9C430484F6
:10428000048C02FA01F5ADB22C43048430BD70B544
:104290000346002000241846183001258D40ACB29A
:1042A0001D8CA5431D8409B1082909D100EB6100CB
:1042B000056825F0700505600568154305600EE08A
:1042C0000D1FC5F34E052844056825F4E04505603B
:1042D00005684FF6FF7606EA02263543056070BD95
:1042E00021B1028842F00202028004E002884FF607
:1042F000FD731A400280704721B1028842F0040227
:10430000028004E002884FF6FB731A400280704777
:1043100021B1828842F08002828004E082884FF6D8
:104320007F731A408280704702884FF6F7731A40F5
:10433000028002880A430280704782884FF68F739A
:104340001A40828082880A438280704702894FF631
:10435000F8731A40028102890A4302817047028978
:104360004FF67F731A40028102890A430281704727
:1043700081847047818570478186704701877047C7
:1043800081877047A0F84010704702884FF6FF43BE
:104390001A40028002880A43028070470146888ED4
:1043A00070470146088F70470146888F7047014665
:1043B000B1F8400070470146888C70470146088D6F
:1043C000704702460020138A0B400BB1012000E029
:1043D00000207047CA430282704730B50246002071
:1043E00000230024158A05EA0103958905EA0104E2
:1043F00013B10CB1012000E0002030BDCA4302829D
:1044000070477047704770477047704710B500F0AD
:1044100009F8006810BD10B5044600F003F8046008
:1044200010BD000000487047980200200048704707
:10443000980200207546FFF7F9FFAE460500694671
:10444000534620F00700854618B020B5FDF7D0FD93
:10445000BDE820404FF000064FF000074FF0000885
:104460004FF0000B21F00701AC46ACE8C009ACE806
:10447000C009ACE8C009ACE8C0098D46704710B56A
:104480000446AFF300802046BDE81040FBF797BE1E
:104490002DE9F04114461D4606460F4600F06BF923
:1044A00000F07040B0F1005F0FD0201C18BF012059
:1044B000284320F00040C0F17F6000F1E040C00FD1
:1044C00002BF20462946BDE8F08130463946BDE8A6
:1044D000F0812DE9F04114461D4606460F4600F0D6
:1044E0004AF900F07040B0F1004F0FD0201C18BF07
:1044F0000120284320F00040C0F17F6000F1E0403F
:10450000C00F02BF20462946BDE8F081304639463B
:10451000BDE8F0812DE9F04106460F4600F07AFC37
:10452000041E0D4618BF0120284320F00040C0F1B2
:104530007F6000F1E040C00F0ED0301C18BF01209A
:10454000384320F00040C0F17F6000F1E040C00F30
:1045500004BF0120FFF75FFF20462946BDE8F08138
:1045600021F00042A2F16052B2F5801F01F0004339
:1045700028BFD2F17F6C0BD95FEA001C43EAC2026C
:1045800042EB507018BF704728BF20F00100704701
:10459000B2F5801FBCBF184670474FEA410C1CF5AE
:1045A000001F02D2084601F090B870B500F0DEFBA3
:1045B00000000089FFF7F6BF4FF00040A0F5800033
:1045C0007047000010B591EA030F48BF83F0004325
:1045D00000F10E85841A71EB030C05D2121943EB1E
:1045E0000C03001B61EB0C01DFF824E14FEA1154CE
:1045F000A4EB135C1EEA430F18BF9EEA445F73D01E
:1046000023EA0E03DCF1200E21EA045143F4801367
:1046100032D322FA0CFE10EB0E0023FA0CFE41EB13
:104620000E01CCF1200E03FA0EFE10EB0E0051F13C
:104630000001B1F5801FCCF1200E32D201EB045104
:1046400012FA0EF2BDE8104058BF7047401C38BF48
:104650005FEA420218BF7047002814BF20F0010033
:1046600041F100014FEA410313F5001F38BF7047C5
:10467000A1F1C04100F0C8BB012A43EB0302ACF139
:10468000200CDCF11F0E32BF4FF0000E23FA0CF3AA
:1046900010EB030041EB0451B4EB115FD0D0A1EB60
:1046A000045101F5801149085FEA300001EB045123
:1046B0000ED350F1000038BF12FA0EFE08D1BDE84B
:1046C0001040C9E7401C38BF5FEA4202CAD1C3E7C5
:1046D000BDE810404FEA410313F5001F38BF704793
:1046E000A1F1C04100F090BB9EEA445F08D011EAFE
:1046F0005E0FBDE8104004BF01F00041002070478C
:10470000BDE8104070B500F031FB00BF64FBBE3E59
:104710000000E0FF51EA030C17D41CF5801F58BFBE
:10472000BCF5801F00F10680994218BF704708BF92
:104730009042704707D711F5801F58BF13F5801FAF
:1047400026D499427047894270471CF5801F08D5CE
:10475000BCF5801FF7D58B4218BF704708BF824257
:1047600070474FF4001C1CEB410F38BF1CEB430F8C
:104770000ED28B42704770B5FFF7CCFFEFF300808D
:1047800020F0104038BF40F0004080F3008870BD3A
:10479000BDE8704070B500F0E9FA00BF0000000904
:1047A00000F053B84FF0404010F1004FEFF300809D
:1047B000704751EA030C17D41CF5801F58BFBCF595
:1047C000801F00F10680994218BF704708BF9042D1
:1047D000704707D711F5801F58BF13F5801F26D4E7
:1047E00099427047894270471CF5801F08D5BCF577
:1047F000801FF7D58B4218BF704708BF82427047B1
:104800004FF4001C1CEB410F38BF1CEB430F0ED2C2
:104810008B42704770B5FFF7CCFFEFF3008020F0BC
:10482000104038BF40F0004080F3008870BD00F0B9
:104830009DFA00BF0000000900F007B84FF04040AB
:1048400010F1004FEFF300807047491058BFC1F1DD
:1048500040415B1058BFC3F140438B42EFF30080EF
:10486000704700002DE9C04130B4DFF8A0C23CEA37
:10487000111418BF3CEA131400F0EC8081EA030520
:104880001CEA111444EAD57418BF1CEA131500F091
:10489000C780A4EB05044FF0004545EAC12145EA75
:1048A000C32341EA505143EA525304F17F749942C1
:1048B00004F500344FEAC0204FEAC22208BF9042FC
:1048C00000F09C804FEA13650FF24016765D4FEAC8
:1048D000134506FB05F7C7F1807706FB07F74FEA9C
:1048E000D737A7FB03687642C8F58038A7FB06CE0A
:1048F00038BFA8F1010807FB08E64FF0000EA6FB41
:10490000028CE6FB03CEDCF1000CCEF1004E38BF8A
:10491000AEF1010EA6FB0C584FF000074FF000055A
:10492000E6FB0E87A1FB08C6A0FB07CE16EB0E0622
:1049300045F10005E1FB076515F1E04E7EBFA4F5EA
:1049400080345FEA46066D4116F1800745F10005A7
:104950004FEA17274FEA066647EA0567A6F1DE46E3
:10496000B6F1805F4FEA15251FD9384624F0010CB7
:1049700005EBC471BCF1FE6F01EB0C1102D8F0BC69
:10498000BDE8008124425CBF01F5801E9EEAC47F21
:1049900002D4F0BCBDE80081244238D4F0BCA1F1BF
:1049A000C041BDE8004100F02FBA4FEAD22242EAEE
:1049B00043524FEAD323A7FB02864FEAD02040EAB6
:1049C000415007FB03661EEA0E0F4FEAD12105FB9B
:1049D000026658BFA6EB0056B6EB00564FEA520EE1
:1049E0004EEAC37E18EB0E0E56EB530EBDD518EBF8
:1049F00002085E417F1C55F10005B6E74FF48015B3
:104A00004FF000074FF000064FF00008ADE7F0BC94
:104A10004FF0000001F1C04101F00041BDE800810C
:104A200011EA0C1F0CEA131500D00CE013EA0C1F5E
:104A300000F025804FF00000F0BC81EA030101F096
:104A40000041BDE80081F0BCBDE8004181EA0301FE
:104A500000F0DAB9F0BCBDE8004170B500F086F9AD
:104A6000097EFC3E00F007B881EA03014FF0000028
:104A700001F00041704781EA030100F0C5B9F0BCC4
:104A8000BDE800414FF0000021497047FFFDFBF9F0
:104A9000F7F5F4F2F0EEEDEBE9E8E6E4E3E1E0DE71
:104AA000DDDBDAD8D7D5D4D3D1D0CFCDCCCBCAC8E3
:104AB000C7C6C5C4C2C1C0BFBEBDBCBBBAB9B8B70A
:104AC000B6B5B4B3B2B1B0AFAEADACABAAA9A8A8FD
:104AD000A7A6A5A4A3A3A2A1A09F9F9E9D9C9C9BCB
:104AE0009A99999897979695959493939291919076
:104AF0008F8F8E8E8D8C8C8B8B8A89898888878707
:104B00008685858484838382828181800000FF077B
:104B10000000F87F4FEA41034FEA5353A3F5806347
:104B2000D3F11E03C8BFD3F1210C0CDD4FF00042BE
:104B300042EAC12242EA505232FA03FC8CEAE17C9A
:104B4000ACEBE1707047102BC4BF0020704703F539
:104B5000787CBCF1FF3F04D06FF0004282EA210074
:104B6000704770B500F002F9499224800020704728
:104B7000F2E710F0004248BF4042B0FA80F310FA6A
:104B800003F10AD0C3F11D0303F580634FEA4150DE
:104B900002EB035202EBD12170474FF00000704747
:104BA00051EA030C17D41CF5801F58BFBCF5801FB9
:104BB00000F10680994218BF704708BF90427047C5
:104BC00007D711F5801F58BF13F5801F19D49942DC
:104BD0007047894270471CF5801F08D5BCF5801FBF
:104BE000F7D58B4218BF704708BF824270474FF419
:104BF000001C1CEB410F38BF1CEB430F01D28B4252
:104C0000704770B500F0B2F8922449004FF000519F
:104C10004FF08053FFF719BEDFF848C170B51CEAAA
:104C2000111E1EBF1CEA13159EEA0C0F95EA0C0F0D
:104C300000F06F8081EA030423EA4C134EEAD47E2D
:104C400021EA4C1141F4801143F48013AE44A1FBDE
:104C5000024CA0FB0365AEF17F7E361955EB0C05C7
:104C6000A1FB034C4CF10003A0FB021C16EB0C064D
:104C7000654153F10003094218BF46F0010613F4E1
:104C8000007F0BD14FEA03314FEA0530340341EA8C
:104C9000155140EA16506FF003020AE04FEAC321B3
:104CA0004FEAC520F40241EA555140EA56506FF0F0
:104CB000020202EB2E4201EB025585EACE710AD0C8
:104CC0005FEA440C18BF24F0004450F1000041F1A9
:104CD000000120EAD47040F2FE7C624500D270BD33
:104CE000A84214BF4FF080444FF04044002E08BF4C
:104CF0000024BEF1806FA8BFA1F1C041BDE87040A3
:104D000080F282804FF0000001F1C04101F00041CB
:104D100070479EEA0C0F0CEA131518BF95EA0C0FAA
:104D200006D04FF0000081EA030E0EF0004170BD86
:104D300000F01CF88900013E00F007B800F009B847
:104D40004FEA430C5FEA5C5C08D081EA030100F0A3
:104D50005BB84FEA410C5FEA5C5CF6D14FF00000B3
:104D6000014970470000FF070000F87F0EF1020EB6
:104D70002EF0030E5EF8046B364205D4012A43EB95
:104D8000030515F5001F12D8012841EB010C1CF595
:104D9000001F0CD80ED14FEAD17C15F5001F0CEB8B
:104DA0004C0C0CF1020C08BF4CEBD37C04E04FF030
:104DB000080C01E04FEAD37C0CEB4C0526FA05F613
:104DC00006F00706B6F1040C06D20EEB860CBDE821
:104DD00070404CF0010C6047DFE80CF0090B020258
:104DE0004FF000414FF00000A1F5002170BD1946C1
:104DF0001046012851EB010418BFD4F5001484BFFC
:104E0000002001F0004170BD0808A0F500114FEA34
:104E1000310170472DE9F04101F5801CBCF5001F00
:104E2000C0F2C3804FEA115C21EA0C510CF1FD0C79
:104E300041F480115FEA5C0C0CF5C07C01D34000AA
:104E400049413DA4890241EA905187028E0E0A0C25
:104E5000A45D04FB04F602FB06F6C6F14046A4FB83
:104E60000662F60D46EA422606FB06F4A4FB012381
:104E70005242C3F1404338BF5B1EA6FB02420024EE
:104E8000E6FB0324D20B42EA4446A6FB0623A1FB21
:104E900002E2A3FB07E4A4184FF0000252F1000263
:104EA000E3FB01426442C2F1404E38BFAEF1010E55
:104EB000A6FB04234FF00002E6FB0E32A2FB0346E2
:104EC0004FF00004B61954F10004E2FB0264A1FBA8
:104ED00006E6A4FB07E816EB08064FF0000858F1B9
:104EE0000008E4FB01687642C8F1405838BFA8F1D9
:104EF0000108A2FB06E4A3FB08E52D194FF000040E
:104F000054F10004E2FB0854A1FB05E6A7FB04E80A
:104F100018EB06084FF0000656F10006E1FB048688
:104F200018F1200556F10006A809A8F11B08B109DF
:104F300008F03F08B8F10A0F40EA86601CD901EB7F
:104F40000C51BDE8F08100BFFCF5EEE8E2DDD8D3FE
:104F5000CFCBC7C3C0BDB9B6B4B1AEACA9A7A5A3EA
:104F6000A19F9D9B9A9896959392908F8D8C8B89FB
:104F70008887868584838281A0FB006800FB01F21C
:104F800008EB4208B8EB872807D5341858EB010422
:104F9000D5D5401C51F10001D1E7341A78EB01045A
:104FA000CDD4401E71F10001C9E75FEA4C0C5FEA05
:104FB0009C5C0DD105D34FF0000001F00041BDE82D
:104FC000F081BDE8F04170B5FFF7D0FE6DDBFFBEAC
:104FD000BDE8F0414FF00000004970470000F87F45
:104FE00010B591EA030F48BF83F000433FF5F2AAE2
:104FF000841A71EB030C07D212198CF0004C43EBAE
:105000000C03001B61EB0C01DFF8A4E14FEA115423
:10501000A4EB135C1EEA430F18BF9EEA445F00F046
:10502000B08023EA6E03524221EA0451C3EB6E03BF
:1050300038BF5B1EDCF1200E25D322FA0CFE10EBEC
:105040000E0043FA0CFE41EB0E01CCF1200E03FAE8
:105050000EFE10EB0E0051F10001CCF1200E29D410
:1050600012FA0EF201EB0451BDE8104058BF704730
:10507000401C1CBFB2F1004F704700280CBF491CF8
:1050800020F00100704712EB020E43EB030218BF41
:105090004FF0010E4EEA4202ACF1200CDCF11E0E84
:1050A00054D943FA0CFE10EB0E0051F1FF31CCF154
:1050B0001E0ED5D50EF1010E12FA0EFE404141EB47
:1050C000010101EB445C5FEA5C5C10D910EBDE701F
:1050D00001EB045138BFBEF1004FBDE8104018BFCE
:1050E000704700280CBF491C20F00100704730D2E7
:1050F0004FEAD42C11F5001124F400641BD0B1FA4E
:1051000081F20B3AA41AA41ED2F12003914030FA86
:1051100003F31943904001EBCC71002C01EB0451D7
:10512000BDE81040A8BF704701F1C0414FF000003A
:1051300001F000417047B0FA80F310FA03F100D19A
:1051400010BDE41A173C4805C90AE4E701EB045115
:1051500010BD491001EB0451BDE810404FEA30008A
:1051600002E04FF0000170474A0008BF0042F8D04B
:10517000B2F5001F28BF704701F000414FF000005A
:1051800070479EEA445F07D011EA5E0FBDE8104009
:1051900004BF002100207047BDE8104070B5FFF744
:1051A000E5FD00BF40DFF63E83F00041104670474A
:1051B0000000E0FF43004FEAD30C4FEA3C0C4340B1
:1051C0001FBF40070CF1605113F0FE4F70471CF0F9
:1051D000006F03D100200CF0004170470CF0004339
:1051E00043EA507010B540EACC0000F028FA00BF46
:1051F000000000924FEA0001FFF706BE4FF00041A9
:105200004FF00000A1F500217047000090EA010F67
:1052100048BF81F0004100F19682421A3CBF801ADB
:1052200089184FEAD0524FF07F4C1CEA410FA2EB95
:10523000D15318BF9CEA026F00F03B804FF0004C46
:105240004CEA00204CEA012121FA03FC10EB0C0C83
:105250001ED202F1FF325FEA1C2040EBC25038BF81
:1052600070471CF07F0F4FEA400C18BFBCF17F4F16
:1052700038BF7047C3F12003994008BF20F00100F8
:10528000BCF17F4F38BF7047A0F1C04000F01DBA9D
:105290004FEA3C00000A40EBC25028BF1CF0FF0F51
:1052A0004FEA400CE6D018BFBCF17F4F38BF7047C3
:1052B000EAE79CEA026F05D010EA5C0F08BF00F035
:1052C0000040704710B500F0BAF900BF64FBBE3E65
:1052D000401058BFC0F14040491058BFC1F1404193
:1052E0008142EFF3008070474FF47F0C1CEAD0122C
:1052F0001EBF1CEAD11392EA0C0F93EA0C0F00F0C8
:10530000858090EA010F48BF42F4807240F4000C9F
:1053100041F400002CF07F4120F07F4000B5814235
:10532000A2EB03020FF2081CACEB504EC0F10000E0
:105330009EF800E04FEA4E0E00FB0EFC38BF49001D
:105340004FEA2C1C02F5FA020CFB0EF34FEACE1EBC
:105350004FEA112C4FEAC1210EEB635E42EB224271
:105360000EFB0CFC4FEA1C5300FB03114FEA112CFF
:105370004FEA01310EFB0CFC4FEADC4C00FB0C1138
:10538000C14228BF09184CEB03335DF804EB10EB66
:10539000410143EBC250B2F57C0F38BF704729D5AD
:1053A00012F0F00F1CBF00F1C04000F00040704749
:1053B000008182838485868788898B8C8D8E8F91EE
:1053C0009293959697999A9C9D9FA0A2A3A5A7A812
:1053D000AAACAEB0B2B3B5B7B9BCBEC0C2C5C7C93E
:1053E000CCCED1D4D7D9DCDFE2E6E9ECF0F3F7FAA2
:1053F000FE0000004FEA400C0CF1807CBCF17E4FB7
:1054000028BF7047B0F1C04000F05FB990EA010FCB
:105410000CEAD11348BF42F48072624538BF63453D
:1054200007D213F47F0F16D080EA010000F000408D
:10543000704710B500F003F9097EFC3E00F005B896
:1054400080EA010000F00040704780EA010000F0AF
:10545000004000F03AB912F47F0F04BF02487047D1
:1054600080EA010000F031B90000C07F41000B0E5E
:10547000D3F19E0208D950F400034FEA032323FA24
:1054800002F048BF4042704710B500F0D8F800BFA6
:1054900049922480002070476FF0004282EA200089
:1054A0007047000010F0004148BF4042B0FA80F35E
:1054B00010FA03F2C3F19D030BD051EAC35101EB83
:1054C0001220530638BF704700F1010008BF20F0DA
:1054D0000100704750EA010C00F113801CF5000F29
:1054E00058BFBCF5000F01D48842704707D710F5AC
:1054F000000F58BF11F5000F15D48842704789423C
:1055000070471CF5000F04D5BCF5000FF7D581429C
:1055100070474FF0807C1CEB400F38BF1CEB410FF5
:1055200001D28142704710B500F089F892244900F9
:105530004FF000504FF08051FFF7CABE4FF47F0C80
:105540001CEAD0121EBF1CEAD11392EA0C0F93EA98
:105550000C0F00F0478090EA010F48BF42F48072C0
:105560004FF0004C4CEA00204CEA012102EB030210
:10557000A0FB0113A2F50002002918BF43F00103AC
:105580005B0028BF4FEA330342EB22425FEA132C51
:105590004CEBC2502EBFBCEB436FB2F57C0F704793
:1055A0004FEA036CBCF1004F08BF20F00100B2F5D8
:1055B0007C0F38BF70470BD582F0FF0212F5803F99
:1055C000C8BF704700F1C040D8BF00F0004070472E
:1055D00000F5000C5FEA4C0C48BF7047B0F1C040CA
:1055E00000F073B890EA010F0CEAD11348BF42F4FF
:1055F0008072624538BF634504D280EA010000F042
:105600000040704710B500F01AF800BF8900013E55
:1056100000F007B800F009B85FEA410C5FEA1C6CC3
:1056200008D080EA010000F050B85FEA400C5FEA61
:105630001C6CF6D14FF00040A0F5800070470EF1D1
:10564000020E2EF0030E5EF8044B244204D44FEAFF
:105650004102B2F17F4F11D84FEA4003B3F17F4FBF
:105660000CD80ED14FEAD07CB2F17F4F0CEB4C0C32
:105670000CF1020C08BF4CEBD17C04E04FF0080C9D
:1056800001E04FEAD17C0CEB4C0324FA03F404F064
:105690000704B4F1040C06D20EEB840CBDE81040F4
:1056A0004CF0010C6047DFE80CF0070802024FF0F5
:1056B0000040A0F5800010BD0846420018BFD2F19E
:1056C000807288BF00F0004010BDFF2141EAD05039
:1056D000C005704751EA000C00F113801CF5000F63
:1056E00058BFBCF5000F01D48142704707D711F5B0
:1056F000000F58BF10F5000F15D481427047894242
:1057000070471CF5000F04D5BCF5000FF7D5884293
:1057100070474FF0807C1CEB410F38BF1CEB400FF3
:1057200001D28842704780EA010081EA000180EAE4
:105730000100FFF7F8BE000090EA010F48BF81F0BA
:1057400000413FF56AAD421A04D882F00042A0EB56
:10575000020011444FEAD0524FF07F4C1CEA410F37
:10576000A2EBD15318BF9CEA026F4AD04FF0004C15
:105770004CEA00204CEA012121FA03FCB0EB0C0CAE
:105780000FD412F0FE0F36D05FEA4C001DD5001288
:1057900040EBC25038BF70471CF03F0F18BF704736
:1057A0000BE0A2F101025FEA1C2040EBC25038BFBF
:1057B00070471CF07F0F18BF7047C3F1200399405A
:1057C00014BF401E20F00100704780084FEA1223EA
:1057D00008BF7047B0FA80FCA2EB0C02CCF1280C99
:1057E00060FA0CF093EA122F04BF00EBC25070472E
:1057F0004FEAC3707047130A5FEADC1008BF7047B6
:10580000F6E79CEA026F04D010EA5C0F08BF0020A4
:10581000704710B5FFF713FF40DFF63E81F0004000
:1058200070470000445800080000002040000000BD
:105830006C0100088458000840000020B8080000EF
:105840008801000800A24A040000000000000000D7
:10585000010203040607080901000000000000001F
:105860000000000000000000001500000000000023
:1058700000000102030401020304060708090204F0
:045880000608000016
:0400000508000131BD
:00000001FF
